{
  "address": "0x4A245359B05604c4A35212c80B0BFd149DE8a858",
  "abi": [
    {
      "inputs": [
        {
          "internalType": "address",
          "name": "_token",
          "type": "address"
        }
      ],
      "stateMutability": "nonpayable",
      "type": "constructor"
    },
    {
      "inputs": [],
      "name": "admin",
      "outputs": [
        {
          "internalType": "address",
          "name": "",
          "type": "address"
        }
      ],
      "stateMutability": "view",
      "type": "function"
    },
    {
      "inputs": [
        {
          "internalType": "address",
          "name": "_account",
          "type": "address"
        },
        {
          "internalType": "uint256",
          "name": "_amount",
          "type": "uint256"
        }
      ],
      "name": "mint",
      "outputs": [],
      "stateMutability": "nonpayable",
      "type": "function"
    },
    {
      "inputs": [],
      "name": "minter",
      "outputs": [
        {
          "internalType": "address",
          "name": "",
          "type": "address"
        }
      ],
      "stateMutability": "view",
      "type": "function"
    },
    {
      "inputs": [],
      "name": "pullRewards",
      "outputs": [],
      "stateMutability": "nonpayable",
      "type": "function"
    },
    {
      "inputs": [
        {
          "internalType": "address",
          "name": "_admin",
          "type": "address"
        }
      ],
      "name": "setAdmin",
      "outputs": [],
      "stateMutability": "nonpayable",
      "type": "function"
    },
    {
      "inputs": [
        {
          "internalType": "address",
          "name": "_minter",
          "type": "address"
        }
      ],
      "name": "setMinter",
      "outputs": [],
      "stateMutability": "nonpayable",
      "type": "function"
    },
    {
      "inputs": [],
      "name": "token",
      "outputs": [
        {
          "internalType": "contract IERC20",
          "name": "",
          "type": "address"
        }
      ],
      "stateMutability": "view",
      "type": "function"
    }
  ],
  "transactionHash": "0x2ae4bc422033a23cc0263672a73fcaf4907284a023c7ec583198e2467654a881",
  "args": [
    "0xC0065cb2A0dAc4Eb7c1C44dB85CCeB36370e87AB"
  ],
  "numDeployments": 1,
  "solcInputHash": "ae67908b8ca4ff755c44e7b4cf9f039b",
  "bytecode": "0x60a060405234801561001057600080fd5b50604051610b23380380610b238339818101604052602081101561003357600080fd5b81019080805190602001909291905050508073ffffffffffffffffffffffffffffffffffffffff1660808173ffffffffffffffffffffffffffffffffffffffff1660601b8152505033600160006101000a81548173ffffffffffffffffffffffffffffffffffffffff021916908373ffffffffffffffffffffffffffffffffffffffff1602179055505060805160601c610a3a6100e96000398061032952806104af528061050e52806108395250610a3a6000f3fe608060405234801561001057600080fd5b506004361061007d5760003560e01c8063704b6c021161005b578063704b6c0214610124578063f851a44014610168578063fc0c546a146101b2578063fca3b5aa146101fc5761007d565b8063075461721461008257806340c10f19146100cc5780634a25f38a1461011a575b600080fd5b61008a610240565b604051808273ffffffffffffffffffffffffffffffffffffffff1673ffffffffffffffffffffffffffffffffffffffff16815260200191505060405180910390f35b610118600480360360408110156100e257600080fd5b81019080803573ffffffffffffffffffffffffffffffffffffffff16906020019092919080359060200190929190505050610265565b005b6101226103ea565b005b6101666004803603602081101561013a57600080fd5b81019080803573ffffffffffffffffffffffffffffffffffffffff169060200190929190505050610667565b005b610170610811565b604051808273ffffffffffffffffffffffffffffffffffffffff1673ffffffffffffffffffffffffffffffffffffffff16815260200191505060405180910390f35b6101ba610837565b604051808273ffffffffffffffffffffffffffffffffffffffff1673ffffffffffffffffffffffffffffffffffffffff16815260200191505060405180910390f35b61023e6004803603602081101561021257600080fd5b81019080803573ffffffffffffffffffffffffffffffffffffffff16906020019092919050505061085b565b005b6000809054906101000a900473ffffffffffffffffffffffffffffffffffffffff1681565b6000809054906101000a900473ffffffffffffffffffffffffffffffffffffffff1673ffffffffffffffffffffffffffffffffffffffff163373ffffffffffffffffffffffffffffffffffffffff1614610327576040517f08c379a00000000000000000000000000000000000000000000000000000000081526004018080602001828103825260078152602001807f216d696e7465720000000000000000000000000000000000000000000000000081525060200191505060405180910390fd5b7f000000000000000000000000000000000000000000000000000000000000000073ffffffffffffffffffffffffffffffffffffffff1663a9059cbb83836040518363ffffffff1660e01b8152600401808373ffffffffffffffffffffffffffffffffffffffff1673ffffffffffffffffffffffffffffffffffffffff16815260200182815260200192505050600060405180830381600087803b1580156103ce57600080fd5b505af11580156103e2573d6000803e3d6000fd5b505050505050565b600160009054906101000a900473ffffffffffffffffffffffffffffffffffffffff1673ffffffffffffffffffffffffffffffffffffffff163373ffffffffffffffffffffffffffffffffffffffff16146104ad576040517f08c379a000000000000000000000000000000000000000000000000000000000815260040180806020018281038252600b8152602001807f215065726d697373696f6e00000000000000000000000000000000000000000081525060200191505060405180910390fd5b7f000000000000000000000000000000000000000000000000000000000000000073ffffffffffffffffffffffffffffffffffffffff1663a9059cbb600160009054906101000a900473ffffffffffffffffffffffffffffffffffffffff167f000000000000000000000000000000000000000000000000000000000000000073ffffffffffffffffffffffffffffffffffffffff166370a08231306040518263ffffffff1660e01b8152600401808273ffffffffffffffffffffffffffffffffffffffff1673ffffffffffffffffffffffffffffffffffffffff16815260200191505060206040518083038186803b1580156105a957600080fd5b505afa1580156105bd573d6000803e3d6000fd5b505050506040513d60208110156105d357600080fd5b81019080805190602001909291905050506040518363ffffffff1660e01b8152600401808373ffffffffffffffffffffffffffffffffffffffff1673ffffffffffffffffffffffffffffffffffffffff16815260200182815260200192505050600060405180830381600087803b15801561064d57600080fd5b505af1158015610661573d6000803e3d6000fd5b50505050565b600073ffffffffffffffffffffffffffffffffffffffff168173ffffffffffffffffffffffffffffffffffffffff16141561070a576040517f08c379a000000000000000000000000000000000000000000000000000000000815260040180806020018281038252600c8152602001807f5a65726f2061646472657373000000000000000000000000000000000000000081525060200191505060405180910390fd5b600160009054906101000a900473ffffffffffffffffffffffffffffffffffffffff1673ffffffffffffffffffffffffffffffffffffffff163373ffffffffffffffffffffffffffffffffffffffff16146107cd576040517f08c379a000000000000000000000000000000000000000000000000000000000815260040180806020018281038252600b8152602001807f215065726d697373696f6e00000000000000000000000000000000000000000081525060200191505060405180910390fd5b80600160006101000a81548173ffffffffffffffffffffffffffffffffffffffff021916908373ffffffffffffffffffffffffffffffffffffffff16021790555050565b600160009054906101000a900473ffffffffffffffffffffffffffffffffffffffff1681565b7f000000000000000000000000000000000000000000000000000000000000000081565b600073ffffffffffffffffffffffffffffffffffffffff166000809054906101000a900473ffffffffffffffffffffffffffffffffffffffff1673ffffffffffffffffffffffffffffffffffffffff161461091e576040517f08c379a00000000000000000000000000000000000000000000000000000000081526004018080602001828103825260068152602001807f6d696e746572000000000000000000000000000000000000000000000000000081525060200191505060405180910390fd5b600073ffffffffffffffffffffffffffffffffffffffff168173ffffffffffffffffffffffffffffffffffffffff1614156109c1576040517f08c379a00000000000000000000000000000000000000000000000000000000081526004018080602001828103825260088152602001807f215f6d696e74657200000000000000000000000000000000000000000000000081525060200191505060405180910390fd5b806000806101000a81548173ffffffffffffffffffffffffffffffffffffffff021916908373ffffffffffffffffffffffffffffffffffffffff1602179055505056fea264697066735822122015ae1928bd581a58e179f9369f1aa6fec5b5d80a39922ccd83a137723f12c20164736f6c63430006060033",
  "devdoc": {
    "methods": {
      "mint(address,uint256)": {
        "details": "Requires this contract to be funded with the reward token",
        "params": {
          "_account": "The address to receive the reward tokens",
          "_amount": "The amount of tokens to send the receiver"
        }
      },
      "pullRewards()": {
        "details": "Watch for total pending rewards before calling this"
      },
      "setAdmin(address)": {
        "params": {
          "_admin": "The address of the new admin"
        }
      },
      "setMinter(address)": {
        "details": "can only be set once",
        "params": {
          "_minter": "The address of the minter"
        }
      }
    }
  },
  "userdoc": {
    "methods": {
      "mint(address,uint256)": {
        "notice": "Mints the given amount to the given account"
      },
      "pullRewards()": {
        "notice": "Admin transfers reward tokens out of this contract"
      },
      "setAdmin(address)": {
        "notice": "Sets new admin for the contract"
      },
      "setMinter(address)": {
        "notice": "Sets the address of the minter contract"
      }
    }
  },
  "storageLayout": {
    "storage": [
      {
        "astId": 5973,
        "contract": "contracts/RewardsMinter.sol:RewardsMinter",
        "label": "minter",
        "offset": 0,
        "slot": "0",
        "type": "t_address"
      },
      {
        "astId": 5975,
        "contract": "contracts/RewardsMinter.sol:RewardsMinter",
        "label": "admin",
        "offset": 0,
        "slot": "1",
        "type": "t_address"
      }
    ],
    "types": {
      "t_address": {
        "encoding": "inplace",
        "label": "address",
        "numberOfBytes": "20"
      }
    }
  }
}